:1009D8000C0800000000000000000000FFFFC1003C
:080A46007F977E1DDEFEDFFA42
:010A4E002285
:0C0A15007F237E0A7D82DDFEDEFADFF624
:010A210022B2
:0C0A22007FC17E887D02DDFEDEFADFF67B
:010A2E0022A5
:0D09F9007F7A7EDE7D07DDFEDEFADFF60090
:010A060022CD
:0E0A0700759850438920758DFDD28ED2AF2296
:080A4F008F993099FDC2992234
:040950008C148D1561
:100954007EAAE5151515AC14700215144C60151219
:10096400099BFF120A4F12099B2EFE740129F9E418
:090974003AFA80DEAF06020A4FD8
:1009B40012099BFF600C120A4F740129F9E43AFAF8
:0309C40080EE22A0
:0B0A3B00D2AFD2A8D288D2AAD28A2261
:030003000208DB15
:1008DB00C0E0C0D075D000C004C005C006C0073052
:1008EB009205E47F01800374FFFFFEFDFCE50B2FF7
:1008FB00F50BE50A3EF50AE5093DF509E5083CF57A
:0E090B0008D007D006D005D004D0D0D0E032FE
:0300130002088C54
:10088C00C0E0C0D075D000C000C001C002C003C021
:10089C0004C005C006C007309305E47B01800374D7
:1008AC00FFFBFAF9F8C3E50F9BF50FE50E9AF50E71
:1008BC00E50D99F50DE50C98F50CD007D006D00593
:0F08CC00D004D003D002D001D000D0D0D0E03281
:1009C700C2A0C2A1C2A2C2A3C2A4C2A5C2A6C2A7F4
:0109D70022FD
:1009E900438901758CFC758A66D2AFD2A9D28C2253
:03000B00020919CE
:10091900C0D0758CFC758A66A2A030A201B35006BE
:10092900C2A8C2AA8004D2A8D2AAA2A492A0A2A5AF
:1009390092A1A2A692A2A2A792A3B200A200929407
:07094900A2009295D0D0320C
:0C0A2F0075B715D2B8D2BAC2BCD2B92239
:10097D00120A071209C7120A3B1209E97B007A0015
:0E098D0079087D087C001209501209F980EEED
:03000000020800F3
:0C080000787FE4F6D8FD758120020847DF
:10099B00BB010689828A83E0225002E722BBFE025A
:0909AB00E32289828A83E493228D
:10080C0002097DE493A3F8E493A34003F68001F27C
:10081C0008DFF48029E493A3F85407240CC8C333ED
:10082C00C4540F4420C8834004F456800146F6DFBC
:10083C00E4800B01020408102040809009D8E47E6B
:10084C00019360BCA3FF543F30E509541FFEE493B1
:10085C00A360010ECF54C025E060A840B8E493A378
:10086C00FAE493A3F8E493A3C8C582C8CAC583CAA3
:10087C00F0A3C8C582C8CAC583CADFE9DEE780BE5B
:0109E800000E
:00000001FF
